{
  "contractName": "HealthCare",
  "abi": [
    {
      "constant": true,
      "inputs": [
        {
          "name": "",
          "type": "uint256"
        }
      ],
      "name": "recordsArr",
      "outputs": [
        {
          "name": "",
          "type": "uint256"
        }
      ],
      "payable": false,
      "stateMutability": "view",
      "type": "function"
    },
    {
      "constant": true,
      "inputs": [
        {
          "name": "",
          "type": "uint256"
        }
      ],
      "name": "_records",
      "outputs": [
        {
          "name": "pAddr",
          "type": "address"
        },
        {
          "name": "ID",
          "type": "uint256"
        },
        {
          "name": "testName",
          "type": "string"
        },
        {
          "name": "date",
          "type": "string"
        },
        {
          "name": "hospitalName",
          "type": "string"
        },
        {
          "name": "price",
          "type": "uint256"
        },
        {
          "name": "isValue",
          "type": "bool"
        },
        {
          "name": "signatureCount",
          "type": "uint256"
        }
      ],
      "payable": false,
      "stateMutability": "view",
      "type": "function"
    },
    {
      "inputs": [],
      "payable": false,
      "stateMutability": "nonpayable",
      "type": "constructor"
    },
    {
      "anonymous": false,
      "inputs": [
        {
          "indexed": false,
          "name": "ID",
          "type": "uint256"
        },
        {
          "indexed": false,
          "name": "testName",
          "type": "string"
        },
        {
          "indexed": false,
          "name": "date",
          "type": "string"
        },
        {
          "indexed": false,
          "name": "hospitalName",
          "type": "string"
        },
        {
          "indexed": false,
          "name": "price",
          "type": "uint256"
        }
      ],
      "name": "recordCreated",
      "type": "event"
    },
    {
      "anonymous": false,
      "inputs": [
        {
          "indexed": false,
          "name": "ID",
          "type": "uint256"
        },
        {
          "indexed": false,
          "name": "testName",
          "type": "string"
        },
        {
          "indexed": false,
          "name": "date",
          "type": "string"
        },
        {
          "indexed": false,
          "name": "hospitalName",
          "type": "string"
        },
        {
          "indexed": false,
          "name": "price",
          "type": "uint256"
        }
      ],
      "name": "recordSigned",
      "type": "event"
    },
    {
      "constant": false,
      "inputs": [
        {
          "name": "_ID",
          "type": "uint256"
        },
        {
          "name": "_tName",
          "type": "string"
        },
        {
          "name": "_date",
          "type": "string"
        },
        {
          "name": "hName",
          "type": "string"
        },
        {
          "name": "price",
          "type": "uint256"
        }
      ],
      "name": "newRecord",
      "outputs": [],
      "payable": false,
      "stateMutability": "nonpayable",
      "type": "function"
    },
    {
      "constant": false,
      "inputs": [
        {
          "name": "_ID",
          "type": "uint256"
        }
      ],
      "name": "signRecord",
      "outputs": [],
      "payable": false,
      "stateMutability": "nonpayable",
      "type": "function"
    }
  ],
  "bytecode": "0x608060405234801561001057600080fd5b50336000806101000a81548173ffffffffffffffffffffffffffffffffffffffff021916908373ffffffffffffffffffffffffffffffffffffffff160217905550737faa47fc6f7027fef185c766f9c3c0cb5d8d8850600160006101000a81548173ffffffffffffffffffffffffffffffffffffffff021916908373ffffffffffffffffffffffffffffffffffffffff160217905550610de1806100b56000396000f300608060405260043610610062576000357c0100000000000000000000000000000000000000000000000000000000900463ffffffff16806317aa7fcb14610067578063549b39fc14610170578063a508d0ed146101b1578063ee96b9eb146101de575b600080fd5b34801561007357600080fd5b5061016e60048036038101908080359060200190929190803590602001908201803590602001908080601f0160208091040260200160405190810160405280939291908181526020018383808284378201915050505050509192919290803590602001908201803590602001908080601f0160208091040260200160405190810160405280939291908181526020018383808284378201915050505050509192919290803590602001908201803590602001908080601f0160208091040260200160405190810160405280939291908181526020018383808284378201915050505050509192919290803590602001909291905050506103af565b005b34801561017c57600080fd5b5061019b6004803603810190808035906020019092919050505061067b565b6040518082815260200191505060405180910390f35b3480156101bd57600080fd5b506101dc6004803603810190808035906020019092919050505061069e565b005b3480156101ea57600080fd5b5061020960048036038101908080359060200190929190505050610ad3565b604051808973ffffffffffffffffffffffffffffffffffffffff1673ffffffffffffffffffffffffffffffffffffffff1681526020018881526020018060200180602001806020018781526020018615151515815260200185815260200184810384528a818151815260200191508051906020019080838360005b8381101561029f578082015181840152602081019050610284565b50505050905090810190601f1680156102cc5780820380516001836020036101000a031916815260200191505b50848103835289818151815260200191508051906020019080838360005b838110156103055780820151818401526020810190506102ea565b50505050905090810190601f1680156103325780820380516001836020036101000a031916815260200191505b50848103825288818151815260200191508051906020019080838360005b8381101561036b578082015181840152602081019050610350565b50505050905090810190601f1680156103985780820380516001836020036101000a031916815260200191505b509b50505050505050505050505060405180910390f35b60006002600087815260200190815260200160002090506002600087815260200190815260200160002060060160009054906101000a900460ff161515156103f657600080fd5b338160000160006101000a81548173ffffffffffffffffffffffffffffffffffffffff021916908373ffffffffffffffffffffffffffffffffffffffff1602179055508581600101819055508481600201908051906020019061045a929190610d10565b5083816003019080519060200190610473929190610d10565b508281600401908051906020019061048c929190610d10565b5081816005018190555060018160060160006101000a81548160ff0219169083151502179055506000816007018190555060038690806001815401808255809150509060018203906000526020600020016000909192909190915055507fc20f59e9d68948c943c420ad03b09ad5b4b7feccfe038eb67e9845033df38e1081600101548686868660405180868152602001806020018060200180602001858152602001848103845288818151815260200191508051906020019080838360005b8381101561056757808201518184015260208101905061054c565b50505050905090810190601f1680156105945780820380516001836020036101000a031916815260200191505b50848103835287818151815260200191508051906020019080838360005b838110156105cd5780820151818401526020810190506105b2565b50505050905090810190601f1680156105fa5780820380516001836020036101000a031916815260200191505b50848103825286818151815260200191508051906020019080838360005b83811015610633578082015181840152602081019050610618565b50505050905090810190601f1680156106605780820380516001836020036101000a031916815260200191505b509850505050505050505060405180910390a1505050505050565b60038181548110151561068a57fe5b906000526020600020016000915090505481565b60008060009054906101000a900473ffffffffffffffffffffffffffffffffffffffff1673ffffffffffffffffffffffffffffffffffffffff163373ffffffffffffffffffffffffffffffffffffffff1614806107485750600160009054906101000a900473ffffffffffffffffffffffffffffffffffffffff1673ffffffffffffffffffffffffffffffffffffffff163373ffffffffffffffffffffffffffffffffffffffff16145b151561075357600080fd5b6002600083815260200190815260200160002090508060000160009054906101000a900473ffffffffffffffffffffffffffffffffffffffff1673ffffffffffffffffffffffffffffffffffffffff16600073ffffffffffffffffffffffffffffffffffffffff16141515156107c857600080fd5b8060000160009054906101000a900473ffffffffffffffffffffffffffffffffffffffff1673ffffffffffffffffffffffffffffffffffffffff163373ffffffffffffffffffffffffffffffffffffffff161415151561082757600080fd5b60018160080160003373ffffffffffffffffffffffffffffffffffffffff1673ffffffffffffffffffffffffffffffffffffffff168152602001908152602001600020541415151561087857600080fd5b60018160080160003373ffffffffffffffffffffffffffffffffffffffff1673ffffffffffffffffffffffffffffffffffffffff168152602001908152602001600020819055508060070160008154809291906001019190505550600281600701541415610acf577fc2f555c23b76b78740a06bbfda9d00e05b6234a7e1123d7408fe22f39eaeb81f81600101548260020183600301846004018560050154604051808681526020018060200180602001806020018581526020018481038452888181546001816001161561010002031660029004815260200191508054600181600116156101000203166002900480156109b45780601f10610989576101008083540402835291602001916109b4565b820191906000526020600020905b81548152906001019060200180831161099757829003601f168201915b5050848103835287818154600181600116156101000203166002900481526020019150805460018160011615610100020316600290048015610a375780601f10610a0c57610100808354040283529160200191610a37565b820191906000526020600020905b815481529060010190602001808311610a1a57829003601f168201915b5050848103825286818154600181600116156101000203166002900481526020019150805460018160011615610100020316600290048015610aba5780601f10610a8f57610100808354040283529160200191610aba565b820191906000526020600020905b815481529060010190602001808311610a9d57829003601f168201915b50509850505050505050505060405180910390a15b5050565b60026020528060005260406000206000915090508060000160009054906101000a900473ffffffffffffffffffffffffffffffffffffffff1690806001015490806002018054600181600116156101000203166002900480601f016020809104026020016040519081016040528092919081815260200182805460018160011615610100020316600290048015610bab5780601f10610b8057610100808354040283529160200191610bab565b820191906000526020600020905b815481529060010190602001808311610b8e57829003601f168201915b505050505090806003018054600181600116156101000203166002900480601f016020809104026020016040519081016040528092919081815260200182805460018160011615610100020316600290048015610c495780601f10610c1e57610100808354040283529160200191610c49565b820191906000526020600020905b815481529060010190602001808311610c2c57829003601f168201915b505050505090806004018054600181600116156101000203166002900480601f016020809104026020016040519081016040528092919081815260200182805460018160011615610100020316600290048015610ce75780601f10610cbc57610100808354040283529160200191610ce7565b820191906000526020600020905b815481529060010190602001808311610cca57829003601f168201915b5050505050908060050154908060060160009054906101000a900460ff16908060070154905088565b828054600181600116156101000203166002900490600052602060002090601f016020900481019282601f10610d5157805160ff1916838001178555610d7f565b82800160010185558215610d7f579182015b82811115610d7e578251825591602001919060010190610d63565b5b509050610d8c9190610d90565b5090565b610db291905b80821115610dae576000816000905550600101610d96565b5090565b905600a165627a7a72305820381dd60c2e119e1baae3056e841abb53f3dc20a4c9113eef68f0490ea2e126000029",
  "source": "pragma solidity ^0.4.24;\n\ncontract HealthCare {\n\n    address private hospitalAdmin;\n    address private labAdmin;\n\n    struct Record {\n        address pAddr;\n        uint256 ID;\n        string testName;\n        string date;\n        string hospitalName;\n        uint256 price;\n        bool isValue;\n        uint256 signatureCount;\n        mapping (address => uint256) signatures;\n    }\n\n    modifier signOnly {\n        require (msg.sender == hospitalAdmin || msg.sender == labAdmin );\n        _;\n    }\n\n    mapping (uint256=> Record) public _records;\n    uint256[] public recordsArr;\n\n      constructor() public {\n\n        hospitalAdmin = msg.sender;\n        labAdmin = 0x7fAA47fc6F7027feF185c766f9c3C0cb5d8D8850;                       //enter address\n    }\n\n    event recordCreated(uint256 ID, string testName, string date, string hospitalName, uint256 price);\n    event recordSigned(uint256 ID, string testName, string date, string hospitalName, uint256 price);\n\n    function newRecord (uint256 _ID, string _tName, string _date, string hName, uint256 price) public{\n        Record storage _newrecord = _records[_ID];\n\n         require(!_records[_ID].isValue);\n\n            _newrecord.pAddr = msg.sender;\n            _newrecord.ID = _ID;\n            _newrecord.testName = _tName;\n            _newrecord.date = _date;\n            _newrecord.hospitalName = hName;\n            _newrecord.price = price;\n            _newrecord.isValue = true;\n            _newrecord.signatureCount = 0;\n\n        recordsArr.push(_ID);\n        emit  recordCreated(_newrecord.ID, _tName, _date, hName, price);\n    }\n\n   /* function getRecords(uint256 _ID) public view returns (uint256, string, string, string, uint256, uint256){\n        return (_records[_ID].ID, _records[_ID].testName, _records[_ID].date, _records[_ID].hospitalName, _records[_ID].price, _records[_ID].signatureCount);\n    } */\n\n    function signRecord(uint256 _ID) signOnly public {\n        Record storage records = _records[_ID];\n\n        require(address(0) != records.pAddr);\n\n        require(msg.sender != records.pAddr);\n\n        require(records.signatures[msg.sender] != 1);\n\n        records.signatures[msg.sender] = 1;\n        records.signatureCount++;\n\n        if(records.signatureCount == 2)\n            emit  recordSigned(records.ID, records.testName, records.date, records.hospitalName, records.price);\n\n    }\n}\n",
  "sourcePath": "/home/rishabh/Healthcare insurance DApp/contracts/HealthCare.sol",
  "compiler": {
    "name": "solc",
    "version": "0.4.24+commit.e67f0147.Emscripten.clang"
  },
  "schemaVersion": "2.0.1",
  "updatedAt": "2018-11-21T10:23:42.165Z"
}